:100000000C9434000C943E000C943E000C943E0082
:100010000C943E000C943E000C943E000C943E0068
:100020000C943E000C943E000C943E000C943E0058
:100030000C943E000C943E000C943E000C943E0048
:100040000C943E000C943E000C943E000C943E0038
:100050000C943E000C943E000C943E000C943E0028
:100060000C943E000C943E0011241FBECFEFD8E04C
:10007000DEBFCDBF0E9440000C9460000C940000D5
:100080008FEF84B9ECE7F0E0808180648083EAE759
:10009000F0E0808187688083A8E7B0E08081806499
:1000A0008083808186FDFDCF8D919C911197811574
:1000B000924018F4299A2898F1CF2998289AEECFDF
:0400C000F894FFCFE2
:00000001FF
