S00D00006C65645F382E737265634B
S11300000C942A000C9434000C9434000C943400A6
S11300100C9434000C9434000C9434000C9434008C
S11300200C9434000C9434000C9434000C9434007C
S11300300C9434000C9434000C9434000C9434006C
S11300400C9434000C9434000C9434000C9434005C
S11300500C94340011241FBECFE5D8E0DEBFCDBF21
S11300600E9436000C9458000C9400008FEF81BB62
S1130070E0E050E061E070E08E2F952F42B39B01E9
S1130080082E02C0220F331F0A94E2F7242B22BB4E
S11300902FEF31EE44E0215030404040E1F700C002
S11300A0000022B312BA01968930910539F7E4CFE2
S10700B0F894FFCFEE
S9030000FC
