S012000075617274203130302D302E7372656348
S11300000C9434000C9449000C9449000C9449005D
S11300100C9449000C9449000C9449000C94490038
S11300200C9449000C9449000C9449000C94490028
S11300300C9449000C9449000C9449000C94490018
S11300400C9449000C9449000C9449000C94490008
S11300500C9449000C9449000C9449000C944900F8
S11300600C9449000C94490011241FBECFEFD8E032
S1130070DEBFCDBF11E0A0E0B1E0E4E4F1E002C0F6
S113008005900D92AE30B107D9F70E9490000C9400
S1130090A0000C9400001092C50087E68093C40071
S11300A088E18093C10086E08093C2000895E0EC6B
S11300B0F0E0908195FFFDCF8093C6000895CF9323
S11300C0DF93EC018881882331F021960E94570048
S11300D089918111FBCF8DE00E94570081E30E943A
S11300E0570080E30E94570080E30E9457008DE090
S11300F00E945700D9E30FC08D2F0E9457008C2F08
S11301000E9457008DE00E945700C150CF32A1F7E2
S1130110D150DF3211F0C9E3EFCFDF91CF910895D1
S11301200E944B0080E091E00E945F002FEF83E289
S113013094EF215080409040E1F700C00000F2CFDE
S1070140F894FFCF5D
S111014448656C6C6F20776F726C642121002B
S9030000FC
