S01E0000617672206164632032206C6564207465726D696E616C2E7372656352
S11300000C9434000C9446000C9446000C94460066
S11300100C9446000C9446000C9446000C94460044
S11300200C9446000C9446000C9446000C94460034
S11300300C9446000C9446000C9446000C94460024
S11300400C9446000C9446000C9448000C94460012
S11300500C9446000C9446000C9446000C94460004
S11300600C9446000C94460011241FBECFEFD8E038
S1130070DEBFCDBF21E0A0E0B1E001C01D92A430FD
S1130080B207E1F70E94C2000C9438010C940000FE
S11300901F920F920FB60F9211248F938091C60076
S11300A08093030181E0809302018F910F900FBE32
S11300B00F901F90189587E68093C4001092C50096
S11300C088E98093C1000895E0ECF0E0908195FF09
S11300D0FDCF8093C60008950F931F93CF93DF93B2
S11300E0EC018E0189910E946400F80180818111E4
S11300F0F8CFDF91CF911F910F910895CF93DF93A4
S1130100CDB7DEB727970FB6F894DEBF0FBECDBFCD
S11301104AE050E0BE016F5F7F4F0E9403010E94DE
S11301206C0027960FB6F894DEBF0FBECDBFDF91EB
S1130130CF9108958FEF84B9ECE7F0E0808180647B
S11301408083EAE7F0E08081876880830895ECE7A4
S1130150F0E090818F70907F892B8083EAE7F0E054
S1130160808180648083808186FDFDCF80917900C9
S113017080930101E8E7F0E08081809300018081B1
S1130180918108950E949A000E945B00789489E40A
S11301900E9464008FE40E94640084E50E9464006D
S11301A08DE20E94640081E40E94640082E50E9462
S11301B064008DE40E94640089E50E94640008E7FD
S11301C010E080E00E94A700EC01F8018081918199
S11301D08115924018F4299A289802C02998289ADF
S11301E08DE00E9464008AE00E946400CE010E94B7
S11301F07E002FEF83EC99E0215080409040E1F79E
S113020000C00000DECF4532510520F4423010F02A
S11302100C940E01FB011082CB010895BB27FB0156
S11302205527AA27880F991FAA1FA41710F0A41BEB
S113023083955051B9F7A05DAA3308F0A95DA19345
S1130240009779F7B111B1931192CB010C94280165
S1130250DC01FC01672F71917723E1F7329704C029
S11302607C916D9370836291AE17BF07C8F30895B4
S1070270F894FFCF2C
S9030000FC
