S01600006C65645F70757368627574746F6E2E737265631E
S11300000C942A000C9434000C9434000C943400A6
S11300100C9434000C9434000C9434000C9434008C
S11300200C9434000C9434000C9434000C9434007C
S11300300C9434000C9434000C9434000C9434006C
S11300400C9434000C9434000C9434000C9434005C
S11300500C94340011241FBECFE5D8E0DEBFCDBF21
S11300600E9436000C945A000C94000084B314BA15
S11300708FEF81BB61E070E09899FECF80E090E063
S113008042B39B01082E02C0220F331F0A94E2F7E9
S1130090242B22BB2FEF31EE44E02150304040406E
S11300A0E1F700C0000022B312BA0196893091052D
S10B00B039F7E2CFF894FFCF09
S9030000FC
