S01400003734343720636F756E7465722E737265631A
S11300000C942A000C943F000C943F000C943F0085
S11300100C943F000C943F000C943F000C943F0060
S11300200C943F000C943F000C943F000C943F0050
S11300300C943F000C943F000C943F000C943F0040
S11300400C943F000C943F000C943F000C943F0030
S11300500C943F0011241FBECFE5D8E0DEBFCDBF16
S113006010E0A0E6B0E0E4E0F1E002C005900D92FB
S1130070AA36B107D9F70E9441000C9480000C9471
S11300800000CF93DF93CDB7DEB72A970FB6F8946D
S1130090DEBF0FBECDBF8AE0E0E6F0E0DE011196E0
S11300A001900D928A95E1F78FE084BB81BB9E019C
S11300B0255F3F4FBE016F5F7F4F462F972FDB01B8
S11300C01CC0819182BB1FEF59E688E1115050405A
S11300D08040E1F700C000002E173F0791F78D9193
S11300E085BBEFEF19E658E1E15010405040E1F7CD
S11300F000C00000A217B30711F3E42FF92FE1CFDA
S1070100F894FFCF9D
S10D010400010203040506070809C0
S9030000FC
