:100000000C942A000C9434000C9434000C943400AA
:100010000C9434000C9434000C9434000C94340090
:100020000C9434000C9434000C9434000C94340080
:100030000C9434000C9434000C9434000C94340070
:100040000C9434000C9434000C9434000C94340060
:100050000C94340011241FBECFE5D8E0DEBFCDBF25
:100060000E9436000C9461000C9400008FEF84BB5A
:1000700021E090E825BB85B3882379F03FEF41EE7E
:1000800084E0315040408040E1F700C0000085B37B
:10009000880F85BB85B38111F1CF95BB85B38823CC
:1000A00049F33FEF41EE84E0315040408040E1F7BA
:1000B00000C0000085B3869585BB85B38111F1CF63
:0600C000D9CFF894FFCF38
:00000001FF
